:020000040000FA
:100000000C945D000C9485000C9485000C94850084
:100010000C9485000C9485000C9485000C9485004C
:100020000C9485000C9485000C9485000C9485003C
:100030000C9485000C9485000C9485000C9485002C
:100040000C94F0030C9485000C9460040C943A0416
:100050000C9485000C9485000C9485000C9485000C
:100060000C9485000C9485000000000024002700FB
:100070002A0000000000250028002B0004040404CE
:100080000404040402020202020203030303030342
:10009000010204081020408001020408102001021F
:1000A00004081020000000080002010000030407FB
:1000B0000000000000000000C30511241FBECFEFA8
:1000C000D8E0DEBFCDBF21E0A8E2B1E001C01D92C3
:1000D000A23DB207E1F711E0A0E0B1E0E6E4F1E112
:1000E00002C005900D92A832B107D9F710E0CDE516
:1000F000D0E004C02197FE010E94A006CC35D107B4
:10010000C9F70E9492040C94A1080C940000E1EB42
:10011000F0E02491EDE9F0E09491E9E8F0E0E49179
:10012000EE23C9F0222339F0233001F1A8F4213065
:1001300019F1223029F1F0E0EE0FFF1FEE58FF4FCA
:10014000A591B4912FB7F894EC91811126C09095A8
:100150009E239C932FBF08952730A9F02830C9F023
:10016000243049F7209180002F7D03C0209180002A
:100170002F7720938000DFCF24B52F7724BDDBCFEE
:1001800024B52F7DFBCF2091B0002F772093B000B6
:10019000D2CF2091B0002F7DF9CF9E2BDACF3FB781
:1001A000F89480912D0190912E01A0912F01B09192
:1001B000300126B5A89B05C02F3F19F00196A11D5F
:1001C000B11D3FBFBA2FA92F982F8827BC01CD01A1
:1001D000620F711D811D911D42E0660F771F881F00
:1001E000991F4A95D1F708958F929F92AF92BF922F
:1001F000CF92DF92EF92FF924B015C010E94CF0001
:100200006B017C010E94CF006C197D098E099F094A
:10021000683E734081059105A8F321E0821A910898
:10022000A108B10888EEC80E83E0D81EE11CF11CBD
:1002300081149104A104B10429F7FF90EF90DF909D
:10024000CF90BF90AF909F908F900895AF92BF9244
:10025000CF92DF92EF92FF920F931F93CF93DF9392
:100260006C017B018B01040F151FEB015E01AE18C1
:10027000BF08C017D10759F06991D601ED91FC91E3
:100280000190F081E02DC6010995892B79F7C50110
:10029000DF91CF911F910F91FF90EF90DF90CF9062
:1002A000BF90AF900895FC01538D448D252F30E011
:1002B000842F90E0821B930B541710F0CF96089573
:1002C00001970895FC01918D828D981761F0A28DA0
:1002D000AE0FBF2FB11D5D968C91928D9F5F9F7366
:1002E000928F90E008958FEF9FEF0895FC01918D1C
:1002F000828D981731F0828DE80FF11D858D90E089
:1003000008958FEF9FEF0895FC01918D228D892F25
:1003100090E0805C9F4F821B91098F73992708950D
:1003200081E391E00E94840121E0892B09F420E01F
:10033000822F089580E090E0892B29F00E9490019F
:1003400081110C9400000895FC01A48DA80FB92F11
:10035000B11DA35ABF4F2C91848D90E001968F73ED
:100360009927848FA689B7892C93A089B1898C910C
:10037000837080648C93938D848D981306C002885B
:10038000F389E02D80818F7D80830895EF92FF9225
:100390000F931F93CF93DF93EC0181E0888F9B8DA8
:1003A0008C8D98131AC0E889F989808185FF15C062
:1003B0009FB7F894EE89FF896083E889F989808185
:1003C0008370806480839FBF81E090E0DF91CF9154
:1003D0001F910F91FF90EF900895F62E0B8D10E076
:1003E0000F5F1F4F0F731127E02E8C8D8E110CC0E5
:1003F0000FB607FCFACFE889F989808185FFF5CF30
:10040000CE010E94A401F1CFEB8DEC0FFD2FF11D69
:10041000E35AFF4FF0829FB7F8940B8FEA89FB896C
:1004200080818062CFCFCF93DF93EC01888D8823CA
:10043000B9F0AA89BB89E889F9898C9185FD03C047
:10044000808186FD0DC00FB607FCF7CF8C9185FF2C
:10045000F2CF808185FFEDCFCE010E94A401E9CFCC
:10046000DF91CF910895FC0124813581232B49F040
:1004700068E171E0808191810E94910821E0892BDF
:1004800009F020E0822F0895FC0101900020E9F797
:100490003197AF01481B590BBC0181E391E00C94EB
:1004A0002601CF93DF93FC014481558160817181E6
:1004B00081E391E00E942601EC018EE191E00E942F
:1004C00044028C0F9D1FDF91CF9108958F929F92D0
:1004D000AF92BF920F931F93CF93DF93CDB7DEB749
:1004E000A1970FB6F894DEBF0FBECDBF19A2423060
:1004F00008F44AE08E010F5D1F4F842E912CB12C21
:10050000A12CA50194010E947E06E62FB901CA0123
:10051000EA30F4F4E05DD801EE938D01232B242B17
:10052000252B79F790E080E0109719F0CD010E941B
:100530004402A1960FB6F894DEBF0FBECDBFDF9187
:10054000CF911F910F91BF90AF909F908F90089582
:10055000E95CE1CFFC0180819181009711F00C945E
:10056000420708950F931F93CF93DF93EC01888187
:100570009981009759F02A813B812617370730F07F
:1005800081E0DF91CF911F910F9108958B016F5FF3
:100590007F4F0E94CB07009759F0998388831B8374
:1005A0000A832C813D81232B59F7FC011082E8CF6F
:1005B00080E0E7CFEF92FF920F931F93CF93DF93EB
:1005C000EC017B01FB0101900020E9F731978F01DD
:1005D000061B170BB8010E94B202288139818111D4
:1005E00013C02115310519F0C9010E944207198273
:1005F00018821D821C821B821A82DF91CF911F916B
:100600000F91FF90EF9008951D830C83B701C901EE
:10061000DF91CF911F910F91FF90EF900C949A086A
:100620000F931F93CF93DF93CDB7DEB768970FB6C5
:10063000F894DEBF0FBECDBF8C0181E291E00E9435
:1006400044024AE062E070E080E090E00E946602CE
:100650001C8A1B8A1E8A1D8A188E1F8A4AE0BE01C8
:100660006F5F7F4FC8010E94F005BE016F5F7F4F33
:10067000CE0143960E94DA02CE0143960E945102B7
:1006800062E370E080E090E00E94F400CE014396C7
:100690000E9433028823C9F081E391E00E94840123
:1006A000892B39F462E370E080E090E00E94F4006E
:1006B000F3CF81E391E00E946201839799F760E2B2
:1006C00071E0CE0143960E94DA02CE0143960E9469
:1006D000AA0268960FB6F894DEBF0FBECDBFDF91B9
:1006E000CF911F910F910895EF92FF920F931F9357
:1006F000CF93DF9300D000D000D0CDB7DEB7182F56
:100700007B0181E291E00E944402612F70E090E061
:1007100080E04AE00E9466021A8219821C821B82D3
:100720001E821D82F70101900020E9F731978F01A9
:100730000E191F09B801CE0101960E94B20229814B
:100740003A81811129C02115310519F0C9010E9492
:1007500042071A8219821E821D821C821B82CE01D0
:1007600001960E94510262E370E080E090E00E94F6
:10077000F400CE0101960E943302882301F181E347
:1007800091E00E948401892B71F462E370E080E0C3
:1007900090E00E94F400F3CF1E830D83B701C901DE
:1007A0000E949A08DCCF81E391E00E946201839766
:1007B00061F760E271E0CE0101960E94DA02CE019B
:1007C00001960E94AA0226960FB6F894DEBF0FBECD
:1007D000CDBFDF91CF911F910F91FF90EF900895C2
:1007E0001F920F920FB60F9211242F933F938F9366
:1007F0009F93AF93BF938091290190912A01A0917B
:100800002B01B0912C013091280123E0230F2D37CB
:1008100058F50196A11DB11D20932801809329014F
:1008200090932A01A0932B01B0932C0180912D016C
:1008300090912E01A0912F01B09130010196A11D40
:10084000B11D80932D0190932E01A0932F01B093A1
:100850003001BF91AF919F918F913F912F910F9058
:100860000FBE0F901F90189526E8230F0296A11D2A
:10087000B11DD2CF1F920F920FB60F9211242F935A
:100880003F934F935F936F937F938F939F93AF9318
:10089000BF93EF93FF9381E391E00E94A401FF9146
:1008A000EF91BF91AF919F918F917F916F915F91E8
:1008B0004F913F912F910F900FBE0F901F90189561
:1008C0001F920F920FB60F9211242F938F939F9325
:1008D000EF93FF93E0914101F09142018081E0911B
:1008E0004701F091480182FD1BC0908180914A012F
:1008F0008F5F8F7320914B01821741F0E0914A0185
:10090000F0E0EF5CFE4F958F80934A01FF91EF91ED
:100910009F918F912F910F900FBE0F901F90189560
:100920008081F4CFCF93DF93CDB7DEB7A7970FB613
:10093000F894DEBF0FBECDBF789484B5826084BDCD
:1009400084B5816084BD85B5826085BD85B58160D3
:1009500085BD80916E00816080936E001092810051
:10096000809181008260809381008091810081600C
:1009700080938100809180008160809380008091CD
:10098000B10084608093B1008091B0008160809359
:10099000B00080917A00846080937A0080917A0020
:1009A000826080937A0080917A00816080937A00DF
:1009B00080917A00806880937A001092C100E09163
:1009C0004101F091420182E08083E0913D01F0918C
:1009D0003E011082E0913F01F09140018FEC808355
:1009E00010924901E0914501F091460186E0808333
:1009F000E0914301F0914401808180618083E09126
:100A00004301F0914401808188608083E09143013B
:100A1000F0914401808180688083E0914301F091EE
:100A2000440180818F7D8083EDE9F0E02491E9E845
:100A3000F0E08491882399F090E0880F991FFC01E1
:100A4000E859FF4FA591B491FC01EE58FF4F8591F5
:100A500094918FB7F894EC91E22BEC938FBF63E203
:100A600071E085E00E94740300E010E081E00E94E4
:100A7000870081E090E00E94100364EF71E080E065
:100A800090E00E94F40068E171E081E00E9474034C
:100A900080E00E94870090E080E00E94100364EFF5
:100AA00071E080E090E00E94F40068E171E082E093
:100AB0000E9474038FB7F894C0902901D0902A0146
:100AC000E0902B01F0902C018FBF81E291E00E9419
:100AD00044024AE063E070E080E090E00E94660239
:100AE0001BA21AA21DA21CA21FA21EA22AE0AE01D6
:100AF0004F5F5F4FC701B6010E94FB05BE016F5FEC
:100B00007F4FCE0182960E94DA02CE0182960E9429
:100B1000510262E370E080E090E00E94F400CE01B8
:100B200082960E9433028823C9F081E391E00E94FB
:100B30008401892B39F462E370E080E090E00E9448
:100B4000F400F3CF81E391E00E946201839799F76B
:100B500060E271E0CE0182960E94DA02CE018296B6
:100B60000E94AA0268E171E083E00E94740301150B
:100B7000110509F47BCF0E949001882309F476CFF8
:100B80000E94000073CFE1E3F1E01382128288EE4D
:100B900093E0A0E0B0E084839583A683B7838AE0E6
:100BA00091E09183808385EC90E09587848784EC45
:100BB00090E09787868780EC90E0918B808B81EC2A
:100BC00090E0938B828B82EC90E0958B848B86EC0B
:100BD00090E0978B868B118E128E138E148E089553
:100BE000BB274A3031F4992322F4BDE290958195D8
:100BF0009F4F0C941E06BB27FA01A62F62177105A2
:100C000081059105330B30FB66F0AA27660F771F2D
:100C1000881F991FAA1FA21710F0A21B63953850B6
:100C2000A9F7A05DAA3308F0A95DA19336F7B11129
:100C3000B1931082CA010C943706BB27FB015527DC
:100C4000AA27880F991FAA1FA41710F0A41B839529
:100C50005051B9F7A05DAA3308F0A95DA1930097A0
:100C600079F7B111B1931192CB010C943706DC01E5
:100C7000FC01672F71917723E1F7329704C07C91D3
:100C80006D9370836291AE17BF07C8F308952F92DA
:100C90003F924F925F926F927F928F929F92AF920C
:100CA000BF92CF92DF92EF92FF920F931F93CF9359
:100CB000DF93CDB7DEB7CA1BDB0B0FB6F894DEBFF0
:100CC0000FBECDBF09942A88398848885F846E8416
:100CD0007D848C849B84AA84B984C884DF80EE8060
:100CE000FD800C811B81AA81B981CE0FD11D0FB669
:100CF000F894DEBF0FBECDBFED010895A1E21A2E1C
:100D0000AA1BBB1BFD010DC0AA1FBB1FEE1FFF1FAF
:100D1000A217B307E407F50720F0A21BB30BE40BFF
:100D2000F50B661F771F881F991F1A9469F7609546
:100D30007095809590959B01AC01BD01CF01089500
:100D4000EE0FFF1F0590F491E02D09940F931F9370
:100D5000CF93DF938230910510F482E090E0E09130
:100D6000D001F091D10130E020E0B0E0A0E0309778
:100D700099F42115310509F44AC0281B390B243098
:100D80003105D8F58A819B816115710589F1FB01D7
:100D900093838283FE0111C04081518102811381BE
:100DA00048175907E0F04817590799F4109761F070
:100DB00012960C93129713961C933296CF01DF91E3
:100DC000CF911F910F9108950093D0011093D101FD
:100DD000F4CF2115310551F04217530738F0A9011E
:100DE000DB019A01BD01DF01F801C1CFEF01F9CFAD
:100DF0009093D1018093D001CDCFFE01E20FF31F7C
:100E0000819391932250310939832883D7CF209140
:100E1000CE013091CF01232B41F42091020130917A
:100E200003013093CF012093CE0120910001309136
:100E300001012115310541F42DB73EB74091040160
:100E400050910501241B350BE091CE01F091CF01AB
:100E5000E217F307A0F42E1B3F0B2817390778F091
:100E6000AC014E5F5F4F2417350748F04E0F5F1FF0
:100E70005093CF014093CE01819391939FCFF0E0A7
:100E8000E0E09CCFCF93DF930097E9F0FC0132972D
:100E900013821282A091D001B091D101ED0130E016
:100EA00020E01097A1F420813181820F931F2091BF
:100EB000CE013091CF012817390709F061C0F093B6
:100EC000CF01E093CE01DF91CF910895EA01CE17D3
:100ED000DF07E8F54A815B819E0141155105B1F7B5
:100EE000E901FB83EA8349915991C40FD51FEC179F
:100EF000FD0761F4808191810296840F951FE901BD
:100F000099838883828193819B838A83F0E0E0E0E8
:100F100012968D919C9113970097B9F52D913C9164
:100F20001197CD010296820F931F2091CE0130912F
:100F3000CF012817390739F6309751F51092D101B2
:100F40001092D001B093CF01A093CE01BCCFD38338
:100F5000C28340815181840F951FC817D90761F45E
:100F60004E5F5F4F88819981480F591F518340839D
:100F70008A819B81938382832115310509F0B0CF4B
:100F8000F093D101E093D0019ECFFD01DC01C0CFF1
:100F900013821282D7CFB0E0A0E0E1EDF7E00C942D
:100FA00049068C01009751F4CB010E94A6068C01E2
:100FB000C801CDB7DEB7E0E10C946506FC01E60F91
:100FC000F71F9C0122503109E217F30708F49DC076
:100FD000D901CD91DC911197C617D70798F0C5308C
:100FE000D10530F3CE0104978617970708F3C61B87
:100FF000D70B2297C193D1936D937C93CF010E941D
:101000004207D6CF5B01AC1ABD0A4C018C0E9D1E67
:10101000A091D001B091D101512C412CF12CE12CA7
:10102000109731F58091CE019091CF0188159905E7
:1010300009F05CC04616570608F058C080910001C0
:1010400090910101009741F48DB79EB74091040142
:1010500050910501841B950BE817F90708F055C05E
:10106000F093CF01E093CE01F90171836083A0CFAB
:101070008D919C91119712966C90129713967C907B
:101080001397A815B90559F56C0142E0C40ED11C9F
:10109000CA14DB0420F1AC014A195B09DA0112968B
:1010A000159780F06282738251834083D9016D93DA
:1010B0007C93E114F10471F0D7011396FC93EE9345
:1010C000129776CF22968C0F9D1FF9019183808312
:1010D000F301EFCFF093D101E093D00169CF48162F
:1010E000590608F42C017D01D3019ACFCB010E944F
:1010F000A6067C01009749F0AE01B8010E9488085D
:10110000C8010E944207870153CF10E000E050CF92
:10111000FB01DC0102C001900D9241505040D8F714
:101120000895FB01DC018D91019080190110D9F324
:10113000990B0895FB01DC0101900D920020E1F76D
:101140000895F894FFCF0000D20180000000000055
:10115000C601260153011302840162017601425245
:0E11600045414B000D0A00230050415353003F
:107E0000112484B714BE81FFF0D085E080938100F7
:107E100082E08093C00088E18093C10086E0809377
:107E2000C20080E18093C4008EE0C9D0259A86E02C
:107E300020E33CEF91E0309385002093840096BBD3
:107E4000B09BFECF1D9AA8958150A9F7CC24DD24C4
:107E500088248394B5E0AB2EA1E19A2EF3E0BF2EE7
:107E6000A2D0813461F49FD0082FAFD0023811F036
:107E7000013811F484E001C083E08DD089C08234E0
:107E800011F484E103C0853419F485E0A6D080C0E4
:107E9000853579F488D0E82EFF2485D0082F10E0AE
:107EA000102F00270E291F29000F111F8ED06801E7
:107EB0006FC0863521F484E090D080E0DECF843638
:107EC00009F040C070D06FD0082F6DD080E0C81688
:107ED00080E7D80618F4F601B7BEE895C0E0D1E017
:107EE00062D089930C17E1F7F0E0CF16F0E7DF06D8
:107EF00018F0F601B7BEE89568D007B600FCFDCFD4
:107F0000A601A0E0B1E02C9130E011968C91119780
:107F100090E0982F8827822B932B1296FA010C0160
:107F200087BEE89511244E5F5F4FF1E0A038BF0790
:107F300051F7F601A7BEE89507B600FCFDCF97BE46
:107F4000E89526C08437B1F42ED02DD0F82E2BD052
:107F50003CD0F601EF2C8F010F5F1F4F84911BD097
:107F6000EA94F801C1F70894C11CD11CFA94CF0C13
:107F7000D11C0EC0853739F428D08EE10CD085E9AC
:107F80000AD08FE07ACF813511F488E018D01DD067
:107F900080E101D065CF982F8091C00085FFFCCF94
:107FA0009093C60008958091C00087FFFCCF809118
:107FB000C00084FD01C0A8958091C6000895E0E648
:107FC000F0E098E1908380830895EDDF803219F02E
:107FD00088E0F5DFFFCF84E1DECF1F93182FE3DFCA
:107FE0001150E9F7F2DF1F91089580E0E8DFEE27F6
:047FF000FF270994CA
:027FFE00040479
:00000001FF
